:03000000020E29C4
:0C0E2900787FE4F6D8FD758121020E7080
:1014400043BC807F0A7E001213C453DEFC43DE0CD3
:0A14500053BCDF53A8DF43DE202267
:10138300E4FDFC53BCF0EF444042BCE5BC30E5FB5C
:1013930053BCDF53BCBFAFBDEFADBEFCEDAE04FF2E
:0113A3002227
:0D000E00E4F5C7F5C5F5C675C380F5C4223D
:1014220075C78075F50C75C5038FC4EEF5C375C617
:0E1432005A75C6A57F0A7E001213C402000E72
:10133F0075C78075F50C75C5028FC4EEF5C3AF0583
:10134F008FC275C65A75C6A57F0A7E001213C402D6
:02135F00000E7E
:1013A40075C78075F50C75C5018FC4EEF5C375C698
:1013B4005A75C6A57F0A7E001213C4AFC202000E7E
:1012EF0075940A759370E4F592F5917596CEF59510
:1012FF00F5B2F5B175B41EF5B375CA01F5C975CC64
:09130F0010F5CB75E260F5E12256
:1013E4003D3D3D3D3D3D3D3D20636F64652073744F
:0F13F400617274203D3D3D3D3D3D3D3D0D0A0084
:1012510043BA801212EF1214409001107401F0127F
:1012610014C11200061214DA12119412145A121433
:10127100031214AE121470D2AF1213187BFF7A133B
:0A12810079E4120101120FC480FB92
:1011940043BA8090FEB6E0F090FEEDE4F090FEEAF3
:1011A4007470F0A3F090FEED7411F090FEF27404EC
:1011B400F0A37451F090FEF0E4F0A37431F090FECB
:1011C400B5E04450F090FEFD7480F090FEE0E04401
:0311D40001F02205
:05000600D288D2A822FF
:1014AE00438E805389F0758ACD758CD4C28DD28CC3
:0314BE00D2A9228E
:0A14DA00538EBF53890F438910227F
:10145A0075AC1043AC4043D10275D5E875D4FF434F
:06146A00D10843AF082287
:1014700075841043844043D12075D3E875D2FF436F
:06148000D18043AF1022F1
:040B7B00410109002B
:10140300E4900000F0A3F0900082F0900102F0F06D
:0F141300A3F0A3F0A3F0A3F0C2FE900108F02213
:03008B00020F4021
:100F4000C0E0C083C082C0D075D000C007E5AC301F
:100F5000E12F53ACFD900000E4F0900102E0601A34
:100F6000A3E0FF04F074022FF582E43400F583E07F
:100F7000F5AD900102E014F08007900103E4F0C2A7
:100F8000FEE5AC30E03353ACFE900001E070219000
:100F90000106E0D394804002E4F0900106E0248250
:100FA000F582E43400F583E5ADF0900106E004F04D
:100FB000900104E4F0A37432F0D007D0D0D082D0F6
:040FC00083D0E032C8
:03000B000211D708
:1011D700C0E0C083C082C0D0900104E07002A3E0E9
:1011E7006024900105E024FFF0900104E034FFF053
:1011F700E07002A3E0700F900106E0D39400400670
:0F1207009000017401F0D0D0D082D083D0E032BB
:03009300021361F4
:10136100C0E0C083C082E58430E1085384FD900170
:1013710009E4F0E58430E0035384FED082D083D0C9
:02138100E03258
:0B14CF008F85900109E070FA04F02204
:101318007F107E001213A4EFB4FF1990023D7433BE
:10132800F0A37411F0A374A1F0A37450F0A3F0A378
:07133800F01210FA020D8112
:1010FA00E4FFFE12142290023DE0FDE4FFFE12130B
:10110A003F90023EE0FD7F017E0012133F90023FB6
:10111A00E0FD7F027E0012133F900240E0FD7F0354
:10112A007E0012133F900241E0FD7F047E001213FD
:10113A003F900242E0FD7F057E0012133F7D587FFB
:06114A00107E0002133FBD
:100D8100E4FFFE1213A490023DEFF0E0FD540F7555
:100D9100F0B8A4FF90FEF9E5F0F0A3EFF0EDC45434
:100DA1000F75F0B8A4FFA3E5F0F0A3EFF07F017E8B
:100DB100001213A490023EEFF0E0FFC374019F54B0
:100DC10001FEEFC45401FFC374019FFDAF0612146D
:100DD1009A7F027E001213A490023FEFF030E004EC
:100DE100D2A88002C2A890023FE0C313FF1214866A
:100DF1007F037E001213A4900240EFF07F047E0077
:100E01001213A4900241EFF07F057E001213A4900B
:100E11000242EFF0900240E090010DF0900241E0BB
:070E210090010EF0A3EFF0B9
:010E280022A7
:100B7F0060FC011203D503FA04200446046D0495AA
:100B8F0004BE04E70510053A0565059005BB05E7AA
:100B9F000613063F066C069906C606F30720074D97
:100BAF00077A07A707D40800082D0859088508B148
:100BBF0008DC09070931095B098409AD09D609FD6C
:100BCF000A240A4B0A710A960ABB0ADE0B020B248F
:100BDF000B460B670B870BA70BC60BE40C020C1E07
:100BEF000C3A0C560C700C8A0CA40CBC0CD40CECEC
:100BFF000D020D190D2E0D430D570D6B0D7E0D9022
:100C0F000DA20DB40DC50DD50DE50DF50E040E128B
:100C1F000E200E2E0E3B0E480E550E610E6D0E78E9
:100C2F000E830E8D0E970EA10EAB0EB40EBD0EC61B
:100C3F000ECF0ED70EDF0EE70EEF0EF60EFD0F04E2
:100C4F000F0B0F110F170F1D0F230F290F2F0F351D
:100C5F000F3A0F3F0F440F490F4E0F530F580F5CB2
:100C6F000F600F650F690F6D0F710F740F780F7C89
:0E0EB500900214EBF0A3EAF0A3E9F0A3EDF035
:100EC300E490021BF0A3F090021AF0900217E014D2
:100ED300FF90021AE0FEC39F505A900214E0FBA356
:100EE300E0FAA3E0F975F002EEA4F58285F083122F
:100EF300055FFF900218E0FCA3E0FDC39FEC95F0B3
:100F0300402AA3E02401FFE433FEEF25E0FFEE33A4
:100F1300FE8F828E8312055FFFC3ED9FEC95F05029
:100F23000B90021AE0FFA3E4F0A3EFF090021AE0A3
:0C0F330004F0809790021BE0FEA3E0FF9A
:010F3F00228F
:05109900900210EFF0D1
:10109E00E4900212F0A3F0900211F0900210E0FF23
:1010AE00121383900213E02FF0900212E03EF090A4
:1010BE000211E004F0E0C3940A40E0900212E0FE58
:1010CE00A3E0FF7C007D0A12050A900212EEF0A347
:1010DE00EFF07B017A017912900212E0FFA3E0900B
:0C10EE000218CFF0A3EFF07D7E020EB5DB
:10103200900110E06401705E7F0C12109990010A19
:10104200EFF07F0D12109990010BEFF07F0E12104E
:101052009990010CEFF0900111E064017038900159
:101062000DE0FF90010AE0C39F4004D2C18002C29A
:10107200C190010EE0FF90010BE0C39F4004D2C279
:101082008002C2C290010FE0FF90010CE0C39F40BA
:0710920003D2C322C2C322F6
:0E14C100E4900244F0D2C4D2C3D2C2D2C122FF
:030003000212C125
:1012C100C0E0C083C082C0D075D000C00690024586
:1012D100E0FEA3E0F58BEEF58D9002447401F0D2AF
:0E12E1008ED2ABD006D0D0D082D083D0E032F7
:03001B0002128B43
:10128B00C0E0C083C082C0D0900244E0B40112E43D
:10129B00F0C2C4C2C3C2C2C2C1758BF7758DFF80C9
:1012AB000CD2C4D2C3D2C2D2C1C28EC2ABD0D0D0A8
:0612BB0082D083D0E03276
:10148600EF75F04BA42490FEE5F034E2900245F0AF
:04149600A3CEF022CF
:10149A00EFB40104C2A68002D2A6EDB40103C2A72A
:0414AA0022D2A72281
:1013C400D3EF9400EE9400401600000075080B75EE
:0F13D40009BED509FDD508FAEF1F70E41E80E1B0
:0113E30022E7
:100FC400900001E064017065F07B017A0079829001
:100FD4000106E024FEFD120024AD07AC06900106D4
:100FE400E0FB2480F582E43400F583E0FE74812B79
:100FF400F582E43400F583E0FBEBFFE4900106F0B6
:10100400EDB50729ECB50625900082E0B4481EA38F
:10101400E024FC600F24FE600E24F6600D240D70A5
:0D1024000C020A03020C800208831206FD74
:01103100229C
:100A03009002397403F0900086A3E025E090023849
:100A1300F0900084E0FEA3E0FDEDFF90023BEEF0DA
:100A2300A3EFF09000027448F0A37403F09002382F
:100A3300E0900004F090020EEEF0A3EFF090023885
:100A4300E0C313FF90023CE02FFF90023BE0340031
:100A5300FE90020EE0FCA3E0FDC39FEC9E40030268
:100A63000B71E4900237F0900236F0EC6003020B56
:100A730030ED14604C146062147003020B16147092
:100A830003020B2324046003020B30E4900236F0CC
:100A9300A3E0FB90FEFBE0FEA3E0FF7C007DB81229
:100AA300050AEFC454F0FA90FEF9E0FEA3E0FF7CE0
:100AB300007DB812050AEA4FFFEB4F900237F08032
:100AC3006CE4900236F020A605A3E04401F020A7D1
:100AD3005C900237E04410F08053E4900236F090CB
:100AE3000245E0FEA3E0FFEF2470FFEE341DFEE4B9
:100AF30034FFFDE434FFFCE47B4BFAF9F8121150A8
:100B03007801120597900237EFF030A820E04401F6
:100B1300F0801A90010EE0900236F090010D8008EB
:100B2300E4900236F090010FE0900237F090023625
:100B3300E0FF900239E0FE04F074022EF582E43403
:100B430000F583EFF0900237E0FF900239E0FE04F6
:100B5300F074022EF582E43400F583EFF090020F77
:100B6300E004F0700690020EE004F0020A409002E6
:080B730038E02403FF02121612
:100C80009002397403F0900086A3E025E0900238CA
:100C9000F0900084E0FEA3E0FDEDFF90023BEEF05B
:100CA000A3EFF09000027448F0A37404F0900238AF
:100CB000E0900004F090020EEEF0A3EFF090023806
:100CC000E0C313FF90023CE02FFF90023BE03400B2
:100CD000FE90020EE0FCA3E0FDC39FEC9E400302E9
:100CE0000D77E4900237F0900236F0EC7048ED1486
:100CF000601B14602E146037146034240470377F36
:100D00000C121099900237EFF07F0D800C7F0E12BD
:100D10001099900237EFF0E4FF121099900236EF2D
:100D2000F0801390023674AAF0A374BBF08007E43D
:100D3000900236F0A3F0900236E0FF900239E0FE18
:100D400004F074022EF582E43400F583EFF0900293
:100D500037E0FF900239E0FE04F074022EF582E4E1
:100D60003400F583EFF090020FE004F0700690027B
:100D70000EE004F0020CBD900238E02403FF0212E2
:010D8000165C
:10088300900085E014606D14700302094114700335
:100893000209841470030209CA24046003020A02D1
:1008A30078027C007D017B017A0079827E007F08DB
:1008B3001204CB900007E0FD540F75F0B8A4FF902D
:1008C300FEF9E5F0F0A3EFF0EDC4540F75F0B8A412
:1008D300FFA3E5F0F0A3EFF09001027408F0D2FE5D
:1008E3007F057E001213C443AC02900007E0900220
:1008F3003D0209FE78027C007D017B017A0079824A
:100903007E007F081204CB900237E0FFC374019F7F
:100913005401FEEFC45401FFC374019FFDAF0612DF
:10092300149A9001027408F0D2FE7F057E00121320
:10093300C443AC02900007E090023E0209FE780235
:100943007C007D017B017A0079827E007F0812049E
:10095300CB900007E0FF30E004D2A88002C2A8EFEA
:10096300C313FF1214869001027408F0D2FE7F05B0
:100973007E001213C443AC02900007E090023F8054
:100983007A78027C007D017B017A0079827E007F88
:10099300081204CB900007E090010DF0900006E0F0
:1009A30090010EF09001027408F0D2FE7F057E00E4
:1009B3001213C443AC0290010DE0900240F0900189
:1009C3000EE0900241803478027C007D017B017A45
:1009D3000079827E007F081204CB900007E090012B
:1009E3000FF09001027408F0D2FE7F057E0012130F
:0F09F300C443AC0290010FE0900242F01210FAE0
:010A020022D1
:1006FD0090023A7407F0900088E0900238F0900074
:10070D0084E0FEA3E0FDEDFF90023BEEF0A3EFF0E1
:10071D0078027C007D017B017A0079827E007F0664
:10072D001204CB90023BE0FFA3E090020ECFF0A3AA
:10073D00EFF0900238E0C313FF90023CE02FFF90E2
:10074D00023BE03400FE90020EE0FCA3E0FDC39FEF
:10075D00EC9E400302085D90023AE02482F582E4AB
:10076D003400F583E0900236F090023AE02483F5F0
:10077D0082E43400F583E0900237F0EC6003020868
:10078D0045ED14604514606714700302081B147066
:10079D000302083924046003020845900237E0FD86
:1007AD00540F75F0B8A4FF90FEF9E5F0F0A3EFF04B
:1007BD00EDC4540F75F0B8A4FFA3E5F0F0A3EFF06E
:1007CD00900237E090023DF0806E900237E0FFC35B
:1007DD0074019F5401FEEFC45401FFC374019FFDCA
:1007ED00AF0612149A900237E090023EF0804990C5
:1007FD000237E0FF30E004D2A88002C2A8EFC31395
:10080D00FF121486900237E090023FF0802A90028A
:10081D0037E090010DF0900236E0FF90010EF09060
:10082D00010DE0900240F0A3EFF0800C900237E054
:10083D0090010FF0900242F090023AE02402F09005
:10084D00020FE004F0700690020EE004F002073F84
:10085D007D0612001EAD07AC06EC900008F0A3EF6C
:10086D00F09001027408F0D2FE7F057E001213C4D1
:06087D0043AC020210FA78
:06001E007B017A0079026B
:05002400900210EDF058
:1000290074FFA3F0A3F01204F1FF900211E0F0A312
:10003900E06FF0E4FD900211E0FEA3E0FF30E0196B
:10004900EEC313FEEF13FFEE64A0FEEF6401FF9011
:100059000211EEF0A3EFF0800B900211E0C313F050
:10006900A3E013F00DEDB408CC740129F9E43AFAD0
:0E007900900210E014F070AEA3E0FEA3E0FFD2
:010087002256
:02121600AC0723
:10121800AD0412001EAB07AA06EAFF74022CF58281
:10122800E43400F583EFF0AF0374032CF582E43463
:1012380000F583EFF0EC2402900102F0D2FE7F0566
:081248007E001213C443AC0246
:01125000227B
:100E3500021251E493A3F8E493A34003F68001F270
:100E450008DFF48029E493A3F85407240CC8C333BE
:100E5500C4540F4420C8834004F456800146F6DF8D
:100E6500E4800B0102040810204080900B7BE47E97
:100E7500019360BCA3FF543F30E509541FFEE49382
:100E8500A360010ECF54C025E060A840B8E493A349
:100E9500FAE493A3F8E493A3C8C582C8CAC583CA74
:100EA500F0A3C8C582C8CAC583CADFE9DEE780BE2C
:010C7F000074
:1003FB00E709F608DFFA8046E709F208DFFA803EE4
:10040B0088828C83E709F0A3DFFA8032E309F608D0
:10041B00DFFA8078E309F208DFFA807088828C8338
:10042B00E309F0A3DFFA806489828A83E0A3F608EC
:10043B00DFFA805889828A83E0A3F208DFFA804CC6
:10044B0080D280FA80C680D4806980F2803380109D
:10045B0080A680EA809A80A880DA80E280CA803306
:10046B0089828A83ECFAE493A3C8C582C8CCC5837E
:10047B00CCF0A3C8C582C8CCC583CCDFE9DEE7804E
:10048B000D89828A83E493A3F608DFF9ECFAA9F0CD
:10049B00EDFB2289828A83ECFAE0A3C8C582C8CC23
:1004AB00C583CCF0A3C8C582C8CCC583CCDFEADE3C
:1004BB00E880DB89828A83E493A3F208DFF980CC9E
:1004CB0088F0EF60010E4E60C388F0ED2402B40497
:1004DB000050B9F582EB2402B4040050AF2323453E
:0604EB00822390044B7314
:1004F100BB010689828A83E0225002E722BBFE0209
:09050100E32289828A83E493223B
:10050A00BC000BBE0029EF8DF084FFADF022E4CCD5
:10051A00F875F008EF2FFFEE33FEEC33FCEE9DEC9E
:10052A00984005FCEE9DFE0FD5F0E9E4CEFD22EDE4
:10053A00F8F5F0EE8420D21CFEADF075F008EF2F2E
:10054A00FFED33FD4007985006D5F0F222C398FD1F
:05055A000FD5F0EA22BC
:10055F00BB0110E58229F582E5833AF583E0F5F0DA
:10056F00A3E0225009E92582F886F008E622BBFEB7
:10057F000AE92582F8E2F5F008E222E5832AF583FD
:08058F00E993F5F0A3E99322C2
:10115000C2D5E830E70FB2D5E4C39BFBE49AFAE4CA
:1011600099F9E498F8EC30E717B2D5121186120617
:1011700025E4C39BFBE49AFAE499F9E498F8800328
:1011800012062530D50DE4C39FFFE49EFEE49DFDCD
:04119000E49CFC22BD
:10059700E8600FEFC333FFEE33FEED33FDEC33FCC2
:0305A700D8F12266
:10009600E5082411F582E43402F583E00508229090
:1000A600020E300703900211E475F0011206B70242
:1000B60004F12000E97F2ED2008018EF540F24901F
:1000C600D43440D4FF30040BEF24BFB41A005003DD
:1000D6002461FFE50960021509050CE50C700205AF
:1000E6000B30070E90020EE475F0011206B7EF0210
:1000F60005D70214CF7403D2078003E4C207F508BC
:1001060090020E1206CEE4F509F50BF50CE5096032
:10011600077F201200D980F5750AFFC201C200C20E
:1001260002C203C205C206C2081200A5FF700D3046
:1001360007057F001200EAAF0CAE0B22B4255FC2A2
:10014600D5C2041200A5FF24D0B40A00501A75F0D7
:100156000A780930D50508B6FF0106C6A426F6209A
:10016600D5047002D20380D924CFB41A00EF50040C
:10017600C2E5D2040202EBD20180C6D20080C0D210
:100186000280BCD2D580BAD20580B47F201200D9B5
:100196002002077401B5090040F1120096FF120013
:1001A600D9020113D208D2068095120096FB1200DE
:1001B60096FA120096F94A4B700679BC7A037BFFD1
:1001C60020022EE509602A7E008E827583001205C4
:1001D600AA60060EEE650A70F0C2D5EBC0E0EAC072
:1001E600E0E9C0E0EE120332D0E0F9D0E0FAD0E068
:1001F600FB1204F1FF60AAEBC0E0EAC0E0E9C0E050
:100206001200D9D0E02401F9D0E03400FAD0E0FBA6
:10021600E50A0460DCD50AD980877BFF7A03792E4C
:10022600D202809C791080027908C206C208800832
:10023600D2D5790A8004790AC2D5E50A047002F596
:100246000AE4FAFDFEFF120096FC7B082001131259
:100256000096FD7B1030000A120096FE120096FFF3
:100266007B20EC3382D592D55013C3E43000069F31
:10027600FFE49EFEE42001039DFDE49CFCE4CBF834
:10028600C201EC700CCFCECDCCE824F8F870F38028
:1002960017C3EF33FFEE33FEED33FDEC33FCEB33E8
:1002A600FB994002FB0FD8E9EB300105F8D0E0C41A
:1002B60048B201C0E00AEC4D4E4F78207B0070C278
:1002C600EAB50A0040BCC0E0120334D0F0D0E0200A
:1002D6000104C4C0E0C4B201C0F01200C2D0F0D51F
:1002E600F0EB0201131206D701B053022A5801811E
:1002F6004C017D42022E4F02364402364901964396
:08030600023C550220460220D2
:10030E004502204703DC5001852D01892E01AC2BBF
:10031E00018D2301AA2003C52A014548000001A42E
:10032E003F3F3F00790AA2D5200314300509B910CA
:10033E00020404B9080104A2D520060250010420CB
:10034E0002689202B509005034C0E07F20300319D4
:10035E007F30A20272067205500F12038BC202C2C8
:10036E0006C205C2087F30800F300503E9C0E012D7
:10037E0000D9300503D0E0F9D0E0B509CC3005172F
:10038E007F30B9100C1200D97F583004077F788067
:10039E0003B908031200D93002057F2D0200D97F60
:1003AE00202008F87F2B2006F322920280CF286EA1
:1003BE00756C6C2900D2011200963001F8C20178DA
:1003CE000930D50108F60201452D50434958120057
:1003DE00962403B405004001E49003D7931200CA9B
:0D03EE00743A1200CAD20375090402022AF3
:1005AA00BB010CE58229F582E5833AF583E0225006
:1005BA0006E92582F8E622BBFE06E92582F8E22250
:0D05CA00E58229F582E5833AF583E493226A
:1005D700BB010689828A83F0225002F722BBFE0103
:0205E700F322FD
:1005E90075F008758200EF2FFFEE33FECD33CDCCC9
:1005F90033CCC58233C5829BED9AEC99E58298404C
:100609000CF582EE9BFEED9AFDEC99FC0FD5F0D628
:10061900E4CEFBE4CDFAE4CCF9A88222B800C1B952
:100629000059BA002DEC8BF084CFCECDFCE5F0CB90
:10063900F97818EF2FFFEE33FEED33FDEC33FCEBC9
:1006490033FB10D703994004EB99FB0FD8E5E4F984
:10065900FA227818EF2FFFEE33FEED33FDEC33FC71
:10066900C933C910D7059BE99A4007EC9BFCE99A65
:10067900F90FD8E0E4C9FAE4CCFB2275F010EF2FAA
:10068900FFEE33FEED33FDCC33CCC833C810D707AA
:100699009BEC9AE899400AED9BFDEC9AFCE899F8E5
:0E06A9000FD5F0DAE4CDFBE4CCFAE4C8F92278
:1006B700F8E0FBA3A3E0F925F0F0E58215827002CC
:0706C7001583E0FA38F02270
:0906CE00EBF0A3EAF0A3E9F0222D
:1006D700D083D082F8E4937012740193700DA3A3B2
:1006E70093F8740193F5828883E4737402936860C6
:0606F700EFA3A3A380DFC6
:00000001FF
