:03000000020D9D51
:0C0D9D00787FE4F6D8FD758121020DE49A
:1013E50043BC807F0A7E0012136953DEFC43DE0C8A
:0A13F50053BCDF53A8DF43DE2022C3
:10132800E4FDFC53BCF0EF444042BCE5BC30E5FBB7
:1013380053BCDF53BCBFAFBDEFADBEFCEDAE04FF89
:011348002282
:0D000E00E4F5C7F5C5F5C675C380F5C4223D
:1013C70075C78075F50C75C5038FC4EEF5C375C673
:0E13D7005A75C6A57F0A7E0012136902000E29
:1000660075C78075F50C75C5028FC4EEF5C3AF056F
:100076008FC275C65A75C6A57F0A7E00121369021D
:02008600000E6A
:1013490075C78075F50C75C5018FC4EEF5C375C6F3
:101359005A75C6A57F0A7E00121369AFC202000E34
:1012580075940A759370E4F592F5917596CEF595A7
:1012680075B220F5B175B41EF5B375CA01F5C97527
:10127800CC10F5CB75E260F5E190FE17E04410F074
:011288002243
:101389003D3D3D3D3D3D3D3D20636F6465207374AA
:0F139900617274203D3D3D3D3D3D3D3D0D0A00DF
:1010CC0043BA801212581213E5E4900110F0121476
:1010DC002B12000612149712147C1211671213FFB4
:1010EC001213A8121469121415D2AF7BFF7A13795C
:1010FC008912010130850890023D7418F0800E9021
:10110C00023D3086057419F080037417F0120F3805
:02111C0080FB56
:1011670043BA8090FEB6E0F090FEEDE4F090FEEA20
:101177007470F0A3F090FEED7411F090FEF2740419
:10118700F0A37451F090FEF0E4F0A37431F090FEF8
:10119700B5E04450F090FEFD7480F090FEE0E0442E
:0311A70001F02232
:05000600D288D2A822FF
:10146900438E805389F0758ACD758CD4C28DD28C08
:03147900D2A922D3
:0A149700538EBF53890F43891022C2
:10147C00538EFBE4F5D775D6DC438E1043AF0422B4
:1013FF0075AC1043AC4043D10275D5E875D4FF43AB
:06140F00D10843AF0822E2
:1014150075841043844043D12075D3E875D2FF43CA
:06142500D18043AF10224C
:040B26004101090080
:1013A800E4900000F0A3F0900082F0900102F0F0C9
:0F13B800A3F0A3F0A3F0A3F0C2FE900108F0226F
:03008B00020EB4AE
:100EB400C0E0C083C082C0D075D000C007E5AC30AC
:100EC400E12F53ACFD900000E4F0900102E0601AC1
:100ED400A3E0FF04F074022FF582E43400F583E00C
:100EE400F5AD900102E014F08007900103E4F0C234
:100EF400FEE5AC30E03353ACFE900001E07021908D
:100F04000106E0D394804002E4F0900106E02482DC
:100F1400F582E43400F583E5ADF0900106E004F0D9
:100F2400900104E4F0A37432F0D007D0D0D082D082
:040F340083D0E03254
:03000B000211AA35
:1011AA00C0E0C083C082C0D0900104E07002A3E016
:1011BA006024900105E024FFF0900104E034FFF080
:1011CA00E07002A3E0700F900106E0D3940040069D
:0F11DA009000017401F0D0D0D082D083D0E032E9
:030093000213064F
:10130600C0E0C083C082E58430E1085384FD9001CB
:1013160009E4F0E58430E0035384FED082D083D024
:02132600E032B3
:0B148C008F85900109E070FA04F02247
:1012DF007F107E00121349EFB4FF1990024574334B
:1012EF00F0A37411F0A374A1F0A37450F0A3F0A3B2
:0712FF00F0121076020D0150
:10107600E4FFFE1213C7900245E0FDE4FFFE1200F6
:1010860066900246E0FD7F017E00120066900247F0
:10109600E0FD7F027E00120066900248E0FD7F03BD
:1010A6007E00120066900249E0FD7F047E00120079
:1010B6006690024AE0FD7F057E001200667D587F3D
:0610C600107E000200662E
:100D0100E4FFFE121349900245EFF0E075F0B8A43C
:100D1100FFAEF090FEF9EEF0A3EFF0A3EEF0A3EF3B
:100D2100F07F017E00121349900246EFF0E0FFC30D
:100D310074019F5401FEEFC45401FFC374019FFD70
:100D4100AF061214557F027E00121349900247EF3D
:100D5100F030E004D2A88002C2A8900247E0C31399
:100D6100FF1214417F037E00121349900248EFF0F5
:100D71007F047E00121349900249EFF07F057E0047
:100D810012134990024AEFF0900248E090010DF0F1
:0B0D9100900249E090010EF0A3EFF08B
:010D9C002234
:100B2A0060FC011203D503FA04200446046D0495FF
:100B3A0004BE04E70510053A0565059005BB05E7FF
:100B4A000613063F066C069906C606F30720074DEC
:100B5A00077A07A707D40800082D0859088508B19D
:100B6A0008DC09070931095B098409AD09D609FDC1
:100B7A000A240A4B0A710A960ABB0ADE0B020B24E4
:100B8A000B460B670B870BA70BC60BE40C020C1E5C
:100B9A000C3A0C560C700C8A0CA40CBC0CD40CEC41
:100BAA000D020D190D2E0D430D570D6B0D7E0D9077
:100BBA000DA20DB40DC50DD50DE50DF50E040E12E1
:100BCA000E200E2E0E3B0E480E550E610E6D0E783F
:100BDA000E830E8D0E970EA10EAB0EB40EBD0EC671
:100BEA000ECF0ED70EDF0EE70EEF0EF60EFD0F0438
:100BFA000F0B0F110F170F1D0F230F290F2F0F3573
:100C0A000F3A0F3F0F440F490F4E0F530F580F5C07
:100C1A000F600F650F690F6D0F710F740F780F7CDE
:0E0E2900900214EBF0A3EAF0A3E9F0A3EDF0C1
:100E3700E490021BF0A3F090021AF0900217E0145E
:100E4700FF90021AE0FEC39F505A900214E0FBA3E2
:100E5700E0FAA3E0F975F002EEA4F58285F08312BB
:100E6700055FFF900218E0FCA3E0FDC39FEC95F03F
:100E7700402AA3E02401FFE433FEEF25E0FFEE3331
:100E8700FE8F828E8312055FFFC3ED9FEC95F050B6
:100E97000B90021AE0FFA3E4F0A3EFF090021AE030
:0C0EA70004F0809790021BE0FEA3E0FF27
:010EB300221C
:05101500900210EFF055
:10101A00E4900212F0A3F0900211F0900210E0FFA7
:10102A00121328900213E02FF0900212E03EF09083
:10103A000211E004F0E0C3940A40E0900212E0FEDC
:10104A00A3E0FF7C007D0A12050A900212EEF0A3CB
:10105A00EFF07B017A017912900212E0FFA3E0908F
:0C106A000218CFF0A3EFF07D7E020E29EB
:10122400900110E06401702B7F0C12101590010ADC
:10123400EFF090010DE0FEEFC39E400AD2C4D2C38A
:10124400D2C2D2C18008C2C4C2C3C2C2C2C1E49065
:041254000110F02273
:10142B00E4900244F0900241F0A3F0A3F0D2C4D2B6
:06143B00C3D2C2D2C1229F
:030003000212895D
:10128900C0E0C083C082C0D075D000C00690023FC4
:10129900E0FEA3E0F58BEEF58D9002447401F0D2E7
:0E12A9008ED2ABD006D0D0D082D083D0E0322F
:03001B0002111EB1
:10111E00C0E0C083C082C0D0900244E0640170245D
:10112E00F0900241E0B40102C2C1900242E0B4016B
:10113E0002C2C2900243E0B40102C2C3758BF775BE
:10114E008DFF800CD2C4D2C3D2C2D2C1C28EC2AB6A
:09115E00D0D0D082D083D0E03261
:10144100EF75F04BA42490FEE5F034E290023FF0FA
:04145100A3CEF02214
:10145500EFB40104C2A68002D2A6EDB40103C2A76F
:0414650022D2A722C6
:10136900D3EF9400EE9400401600000075080B7549
:0F13790009BED509FDD508FAEF1F70E41E80E10B
:011388002242
:040C2A0041023D0046
:100F3800900001E06401706AF07B017A0079829088
:100F48000106E024FEFD120FB1AD07AC06900106C4
:100F5800E0FB2480F582E43400F583E0FE74812B05
:100F6800F582E43400F583E0FBEBFFE4900106F042
:100F7800EDB5072EECB5062A90023DE0FF90008201
:100F8800E0B5071EA3E024FC600F24FE600E24F6E3
:100F9800600D240D700C02086A020C330206EA1276
:020FA80009D668
:010FAA002224
:10086A009002397403F0900086A3E025E0900238E4
:10087A00F0900084E0FEA3E0FDEDFF90023BEEF075
:10088A00A3EFF0A3E0900002F0A37403F090023803
:10089A00E0900004F090023BE0FFA3E090020ECF4C
:1008AA00F0A3EFF0900238E0C313FF90023CE02F70
:1008BA00FF90023BE03400FE90020EE0FCA3E0FD54
:1008CA00C39FEC9E40030209CCE4900237F09002E9
:1008DA0036F0EC6003020988ED1460250460030217
:1008EA000988E4900236F0A3E0FB90FEF9E0FEA34B
:1008FA00E0FF7C007DB812050AEB4F900237F080CA
:10090A007D90023FE0FEA3E0FFEF2470FFEE341D6E
:10091A00FEE434FFFDE434FFFCE47B4BFAF9F81201
:10092A00001E900236EFF0900242E025E0FF9002AE
:10093A0041E04FFF900243E025E025E04F146019A3
:10094A0014601D14602214602724FD602B24077094
:10095A002D9002377405F08025E4900237F0801E4E
:10096A009002377401F080169002377403F0800EFB
:10097A009002377402F080069002377404F09002F5
:10098A0036E0FF900239E0FE04F074022EF582E4AC
:10099A003400F583EFF0900237E0FF900239E0FE71
:1009AA0004F074022EF582E43400F583EFF090022D
:1009BA000FE004F060030208AE90020EE004F002B9
:0C09CA0008AE900238E02403FF0211E99F
:100C33009002397403F0900086A3E025E090023817
:100C4300F0900084E0FEA3E0FDEDFF90023BEEF0A8
:100C5300A3EFF0A3E0900002F0A37404F090023835
:100C6300E0900004F090023BE0FFA3E090020ECF7F
:100C7300F0A3EFF0900238E0C313FF90023CE02FA3
:100C8300FF90023BE03400FE90020EE0FCA3E0FD87
:100C9300C39FEC9E505EE4900237F0900236F0ED75
:100CA3007012EC700F7F0C121015900237EFF0E406
:100CB300900236F0900236E0FF900239E0FE04F035
:100CC30074022EF582E43400F583EFF0900237E0EE
:100CD300FF900239E0FE04F074022EF582E4340042
:100CE300F583EFF090020FE004F0708890020EE0BD
:0E0CF30004F08080900238E02403FF0211E933
:1006EA00900085E014606D1470030207A81470036B
:1006FA000207EB147003020831240460030208693C
:10070A0078027C007D017B017A0079827E007F0875
:10071A001204CB900007E0FD540F75F0B8A4FF90C7
:10072A00FEF9E5F0F0A3EFF0EDC4540F75F0B8A4AC
:10073A00FFA3E5F0F0A3EFF09001027408F0D2FEF7
:10074A007F057E0012136943AC02900007E0900215
:10075A004502086578027C007D017B017A00798276
:10076A007E007F081204CB900237E0FFC374019F1A
:10077A005401FEEFC45401FFC374019FFDAF06127A
:10078A0014559001027408F0D2FE7F057E00121300
:10079A006943AC02900007E09002460208657802BD
:1007AA007C007D017B017A0079827E007F08120439
:1007BA00CB900007E0FF30E004D2A88002C2A8EF85
:1007CA00C313FF1214419001027408F0D2FE7F0590
:1007DA007E0012136943AC02900007E09002478042
:1007EA007A78027C007D017B017A0079827E007F23
:1007FA00081204CB900007E090010DF0900006E08B
:10080A0090010EF09001027408F0D2FE7F057E007E
:10081A0012136943AC0290010DE0900248F0900176
:10082A000EE0900249803478027C007D017B017AD7
:10083A000079827E007F081204CB900007E09001C5
:10084A000FF09001027408F0D2FE7F057E001213A9
:0F085A006943AC0290010FE090024AF012107651
:01086900226C
:1009D60090023A7407F0900088E0900238F0900098
:1009E60084E0FEA3E0FDEDFF90023BEEF0A3EFF006
:1009F60078027C007D017B017A0079827E007F0689
:100A06001204CB90023BE0FFA3E090020ECFF0A3CE
:100A1600EFF0900238E0C313FF90023CE02FFF9006
:100A2600023BE03400FE90020EE0FCA3E0FDC39F13
:100A3600EC9E4003020B0290023AE02482F582E427
:100A46003400F583E0900236F090023AE02483F514
:100A560082E43400F583E0900237F0EC6003020A8A
:100A6600EAED14602404707C900237E0FD75F0B85E
:100A7600A4FFAEF090FEF9EEF0A3EFF0A3EEF0A324
:100A8600EFF0900245EDF0805B900236E0FF121425
:100A960041900237E014601914601F146028146036
:100AA600321460372405703C9002417401F0E480F2
:100AB6002FE4900241F0A3048013E4900241F0A3D6
:100AC600F0A304F0801E9002417401F0A3F0E4A3A9
:100AD600F080119002417401F08005E4900241F02B
:100AE600A3F0A3F090023AE02402F090020FE00493
:100AF600F0700690020EE004F0020A187D06120F4E
:100B0600ABAD07AC06EC900008F0A3EFF090010245
:0F0B16007408F0D2FE7F057E0012136943AC0213
:010B250022AD
:060FAB007B017A007902CF
:050FB100900210EDF0BC
:100FB60074FFA3F0A3F01204F1FF900211E0F0A376
:100FC600E06FF0E4FD900211E0FEA3E0FF30E019CF
:100FD600EEC313FEEF13FFEE64A0FEEF6401FF9075
:100FE6000211EEF0A3EFF0800B900211E0C313F0B4
:100FF600A3E013F00DEDB408CC740129F9E43AFA34
:0E100600900210E014F070AEA3E0FEA3E0FF35
:0110140022B9
:0211E900AC0751
:1011EB00AD04120FABAB07AA06EAFF74022CF58213
:1011FB00E43400F583EFF0AF0374032CF582E43491
:10120B0000F583EFF0EC2402900102F0D2FE7F0593
:08121B007E0012136943AC02CE
:0112230022A8
:040C2E0041024B0034
:030063000212B7CF
:0812B700C0E0C083C082C0D07A
:1012BF00900110E0701190024BE004F0E0B464076D
:0712CF00E4F090011004F0AF
:0912D600D0D0D082D083D0E032E8
:100DA9000210CCE493A3F8E493A34003F68001F284
:100DB90008DFF48029E493A3F85407240CC8C3334B
:100DC900C4540F4420C8834004F456800146F6DF1A
:100DD900E4800B0102040810204080900B26E47E79
:100DE900019360BCA3FF543F30E509541FFEE4930F
:100DF900A360010ECF54C025E060A840B8E493A3D6
:100E0900FAE493A3F8E493A3C8C582C8CAC583CA00
:100E1900F0A3C8C582C8CAC583CADFE9DEE780BEB8
:010C320000C1
:1003FB00E709F608DFFA8046E709F208DFFA803EE4
:10040B0088828C83E709F0A3DFFA8032E309F608D0
:10041B00DFFA8078E309F208DFFA807088828C8338
:10042B00E309F0A3DFFA806489828A83E0A3F608EC
:10043B00DFFA805889828A83E0A3F208DFFA804CC6
:10044B0080D280FA80C680D4806980F2803380109D
:10045B0080A680EA809A80A880DA80E280CA803306
:10046B0089828A83ECFAE493A3C8C582C8CCC5837E
:10047B00CCF0A3C8C582C8CCC583CCDFE9DEE7804E
:10048B000D89828A83E493A3F608DFF9ECFAA9F0CD
:10049B00EDFB2289828A83ECFAE0A3C8C582C8CC23
:1004AB00C583CCF0A3C8C582C8CCC583CCDFEADE3C
:1004BB00E880DB89828A83E493A3F208DFF980CC9E
:1004CB0088F0EF60010E4E60C388F0ED2402B40497
:1004DB000050B9F582EB2402B4040050AF2323453E
:0604EB00822390044B7314
:1004F100BB010689828A83E0225002E722BBFE0209
:09050100E32289828A83E493223B
:10050A00BC000BBE0029EF8DF084FFADF022E4CCD5
:10051A00F875F008EF2FFFEE33FEEC33FCEE9DEC9E
:10052A00984005FCEE9DFE0FD5F0E9E4CEFD22EDE4
:10053A00F8F5F0EE8420D21CFEADF075F008EF2F2E
:10054A00FFED33FD4007985006D5F0F222C398FD1F
:05055A000FD5F0EA22BC
:10055F00BB0110E58229F582E5833AF583E0F5F0DA
:10056F00A3E0225009E92582F886F008E622BBFEB7
:10057F000AE92582F8E2F5F008E222E5832AF583FD
:08058F00E993F5F0A3E99322C2
:10001E00C2D5E830E70FB2D5E4C39BFBE49AFAE40D
:10002E0099F9E498F8EC30E717B2D512005412069D
:10003E0012E4C39BFBE49AFAE499F9E498F880037E
:10004E0012061230D50DE4C39FFFE49EFEE49DFD23
:04005E00E49CFC2200
:10009600E5082411F582E43402F583E00508229090
:1000A600020E300703900211E475F0011206A40255
:1000B60004F12000E97F2ED2008018EF540F24901F
:1000C600D43440D4FF30040BEF24BFB41A005003DD
:1000D6002461FFE50960021509050CE50C700205AF
:1000E6000B30070E90020EE475F0011206A4EF0223
:1000F60005C402148C7403D2078003E4C207F50812
:1001060090020E1206BBE4F509F50BF50CE5096045
:10011600077F201200D980F5750AFFC201C200C20E
:1001260002C203C205C206C2081200A5FF700D3046
:1001360007057F001200EAAF0CAE0B22B4255FC2A2
:10014600D5C2041200A5FF24D0B40A00501A75F0D7
:100156000A780930D50508B6FF0106C6A426F6209A
:10016600D5047002D20380D924CFB41A00EF50040C
:10017600C2E5D2040202EBD20180C6D20080C0D210
:100186000280BCD2D580BAD20580B47F201200D9B5
:100196002002077401B5090040F1120096FF120013
:1001A600D9020113D208D2068095120096FB1200DE
:1001B60096FA120096F94A4B700679BC7A037BFFD1
:1001C60020022EE509602A7E008E827583001205C4
:1001D6009760060EEE650A70F0C2D5EBC0E0EAC085
:1001E600E0E9C0E0EE120332D0E0F9D0E0FAD0E068
:1001F600FB1204F1FF60AAEBC0E0EAC0E0E9C0E050
:100206001200D9D0E02401F9D0E03400FAD0E0FBA6
:10021600E50A0460DCD50AD980877BFF7A03792E4C
:10022600D202809C791080027908C206C208800832
:10023600D2D5790A8004790AC2D5E50A047002F596
:100246000AE4FAFDFEFF120096FC7B082001131259
:100256000096FD7B1030000A120096FE120096FFF3
:100266007B20EC3382D592D55013C3E43000069F31
:10027600FFE49EFEE42001039DFDE49CFCE4CBF834
:10028600C201EC700CCFCECDCCE824F8F870F38028
:1002960017C3EF33FFEE33FEED33FDEC33FCEB33E8
:1002A600FB994002FB0FD8E9EB300105F8D0E0C41A
:1002B60048B201C0E00AEC4D4E4F78207B0070C278
:1002C600EAB50A0040BCC0E0120334D0F0D0E0200A
:1002D6000104C4C0E0C4B201C0F01200C2D0F0D51F
:1002E600F0EB0201131206C401B053022A58018131
:1002F6004C017D42022E4F02364402364901964396
:08030600023C550220460220D2
:10030E004502204703DC5001852D01892E01AC2BBF
:10031E00018D2301AA2003C52A014548000001A42E
:10032E003F3F3F00790AA2D5200314300509B910CA
:10033E00020404B9080104A2D520060250010420CB
:10034E0002689202B509005034C0E07F20300319D4
:10035E007F30A20272067205500F12038BC202C2C8
:10036E0006C205C2087F30800F300503E9C0E012D7
:10037E0000D9300503D0E0F9D0E0B509CC3005172F
:10038E007F30B9100C1200D97F583004077F788067
:10039E0003B908031200D93002057F2D0200D97F60
:1003AE00202008F87F2B2006F322920280CF286EA1
:1003BE00756C6C2900D2011200963001F8C20178DA
:1003CE000930D50108F60201452D50434958120057
:1003DE00962403B405004001E49003D7931200CA9B
:0D03EE00743A1200CAD20375090402022AF3
:10059700BB010CE58229F582E5833AF583E0225019
:1005A70006E92582F8E622BBFE06E92582F8E22263
:0D05B700E58229F582E5833AF583E493227D
:1005C400BB010689828A83F0225002F722BBFE0116
:0205D400F32210
:1005D60075F008758200EF2FFFEE33FECD33CDCCDC
:1005E60033CCC58233C5829BED9AEC99E58298405F
:1005F6000CF582EE9BFEED9AFDEC99FC0FD5F0D63C
:10060600E4CEFBE4CDFAE4CCF9A88222B800C1B965
:100616000059BA002DEC8BF084CFCECDFCE5F0CBA3
:10062600F97818EF2FFFEE33FEED33FDEC33FCEBDC
:1006360033FB10D703994004EB99FB0FD8E5E4F997
:10064600FA227818EF2FFFEE33FEED33FDEC33FC84
:10065600C933C910D7059BE99A4007EC9BFCE99A78
:10066600F90FD8E0E4C9FAE4CCFB2275F010EF2FBD
:10067600FFEE33FEED33FDCC33CCC833C810D707BD
:100686009BEC9AE899400AED9BFDEC9AFCE899F8F8
:0E0696000FD5F0DAE4CDFBE4CCFAE4C8F9228B
:1006A400F8E0FBA3A3E0F925F0F0E58215827002DF
:0706B4001583E0FA38F02283
:0906BB00EBF0A3EAF0A3E9F02240
:1006C400D083D082F8E4937012740193700DA3A3C5
:1006D40093F8740193F5828883E4737402936860D9
:0606E400EFA3A3A380DFD9
:00000001FF
