:03000000020D747A
:0C0D7400787FE4F6D8FD758121020DBBEC
:1013BC0043BC807F0A7E0012134053DEFC43DE0CDC
:0A13CC0053BCDF53A8DF43DE2022EC
:1012FF00E4FDFC53BCF0EF444042BCE5BC30E5FBE1
:10130F0053BCDF53BCBFAFBDEFADBEFCEDAE04FFB2
:01131F0022AB
:0D000E00E4F5C7F5C5F5C675C380F5C4223D
:10139E0075C78075F50C75C5038FC4EEF5C375C69C
:0E13AE005A75C6A57F0A7E0012134002000E7B
:1000660075C78075F50C75C5028FC4EEF5C3AF056F
:100076008FC275C65A75C6A57F0A7E001213400246
:02008600000E6A
:1013200075C78075F50C75C5018FC4EEF5C375C61C
:101330005A75C6A57F0A7E00121340AFC202000E86
:10122F0075940A759370E4F592F5917596CEF595D0
:10123F0075B220F5B175B41EF5B375CA01F5C97550
:10124F00CC10F5CB75E260F5E190FE17E04410F09D
:01125F00226C
:101360003D3D3D3D3D3D3D3D20636F6465207374D3
:0F137000617274203D3D3D3D3D3D3D3D0D0A0008
:10109D0043BA8012122F1213BCE4900110F01214F7
:1010AD000212000612146E1214531211381213D6B6
:1010BD0012137F1214401213ECD2AF7BFF7A137907
:1010CD006012010130850890023D7418F0800E9079
:1010DD00023D3086057419F080037417F0120F0F5E
:0210ED0080FB86
:1011380043BA8090FEB6E0F090FEEDE4F090FEEA4F
:101148007470F0A3F090FEED7411F090FEF2740448
:10115800F0A37451F090FEF0E4F0A37431F090FE27
:10116800B5E04450F090FEFD7480F090FEE0E0445D
:0311780001F02261
:05000600D288D2A822FF
:10144000438E805389F0758ACD758CD4C28DD28C31
:03145000D2A922FC
:0A146E00538EBF53890F43891022EB
:10145300538EFBE4F5D775D6DC438E1043AF0422DD
:1013D60075AC1043AC4043D10275D5E875D4FF43D4
:0613E600D10843AF08220C
:1013EC0075841043844043D12075D3E875D2FF43F4
:0613FC00D18043AF102276
:040AFD0041010900AA
:10137F00E4900000F0A3F0900082F0900102F0F0F2
:0F138F00A3F0A3F0A3F0A3F0C2FE900108F02298
:03008B00020E8BD7
:100E8B00C0E0C083C082C0D075D000C007E5AC30D5
:100E9B00E12F53ACFD900000E4F0900102E0601AEA
:100EAB00A3E0FF04F074022FF582E43400F583E035
:100EBB00F5AD900102E014F08007900103E4F0C25D
:100ECB00FEE5AC30E03353ACFE900001E0702190B6
:100EDB000106E0D394804002E4F0900106E0248206
:100EEB00F582E43400F583E5ADF0900106E004F003
:100EFB00900104E4F0A37432F0D007D0D0D082D0AC
:040F0B0083D0E0327D
:03000B000211BC23
:1011BC00C0E0C083C082C0D0900104E07002A3E004
:1011CC006024900105E024FFF0900104E034FFF06E
:1011DC00E07002A3E0700F900106E0D3940040068B
:0F11EC009000017401F0D0D0D082D083D0E032D7
:030093000212DD79
:1012DD00C0E0C083C082E58430E1085384FD9001F5
:1012ED0009E4F0E58430E0035384FED082D083D04E
:0212FD00E032DD
:0B1463008F85900109E070FA04F02270
:1012B6007F107E00121320EFB4FF1990024574339D
:1012C600F0A37411F0A374A1F0A37450F0A3F0A3DB
:0712D600F0121047020CD8D2
:10104700E4FFFE12139E900245E0FDE4FFFE12004E
:1010570066900246E0FD7F017E001200669002471F
:10106700E0FD7F027E00120066900248E0FD7F03EC
:101077007E00120066900249E0FD7F047E001200A8
:101087006690024AE0FD7F057E001200667D587F6C
:06109700107E000200665D
:100CD800E4FFFE121320900245EFF0E075F0B8A48F
:100CE800FFAEF090FEF9EEF0A3EFF0A3EEF0A3EF65
:100CF800F07F017E00121320900246EFF0E0FFC360
:100D080074019F5401FEEFC45401FFC374019FFD99
:100D1800AF0612142C7F027E00121320900247EFB8
:100D2800F030E004D2A88002C2A8900247E0C313C2
:100D3800FF1214187F037E00121320900248EFF070
:100D48007F047E00121320900249EFF07F057E0099
:100D580012132090024AEFF0900248E090010DF043
:0B0D6800900249E090010EF0A3EFF0B4
:010D7300225D
:100B010060FC011203D503FA04200446046D049528
:100B110004BE04E70510053A0565059005BB05E728
:100B21000613063F066C069906C606F30720074D15
:100B3100077A07A707D40800082D0859088508B1C6
:100B410008DC09070931095B098409AD09D609FDEA
:100B51000A240A4B0A710A960ABB0ADE0B020B240D
:100B61000B460B670B870BA70BC60BE40C020C1E85
:100B71000C3A0C560C700C8A0CA40CBC0CD40CEC6A
:100B81000D020D190D2E0D430D570D6B0D7E0D90A0
:100B91000DA20DB40DC50DD50DE50DF50E040E120A
:100BA1000E200E2E0E3B0E480E550E610E6D0E7868
:100BB1000E830E8D0E970EA10EAB0EB40EBD0EC69A
:100BC1000ECF0ED70EDF0EE70EEF0EF60EFD0F0461
:100BD1000F0B0F110F170F1D0F230F290F2F0F359C
:100BE1000F3A0F3F0F440F490F4E0F530F580F5C31
:100BF1000F600F650F690F6D0F710F740F780F7C08
:0E0E0000900214EBF0A3EAF0A3E9F0A3EDF0EA
:100E0E00E490021BF0A3F090021AF0900217E01487
:100E1E00FF90021AE0FEC39F505A900214E0FBA30B
:100E2E00E0FAA3E0F975F002EEA4F58285F08312E4
:100E3E00055FFF900218E0FCA3E0FDC39FEC95F068
:100E4E00402AA3E02401FFE433FEEF25E0FFEE335A
:100E5E00FE8F828E8312055FFFC3ED9FEC95F050DF
:100E6E000B90021AE0FFA3E4F0A3EFF090021AE059
:0C0E7E0004F0809790021BE0FEA3E0FF50
:010E8A002245
:050FE600900210EFF085
:100FEB00E4900212F0A3F0900211F0900210E0FFD7
:100FFB001212FF900213E02FF0900212E03EF090DD
:10100B000211E004F0E0C3940A40E0900212E0FE0B
:10101B00A3E0FF7C007D0A12050A900212EEF0A3FA
:10102B00EFF07B017A017912900212E0FFA3E090BE
:0C103B000218CFF0A3EFF07D7E020E0043
:1011FB00900110E06401702B7F0C120FE690010A36
:10120B00EFF090010DE0FEEFC39E400AD2C4D2C3B3
:10121B00D2C2D2C18008C2C4C2C3C2C2C2C1E4908E
:04122B000110F0229C
:10140200E4900244F0900241F0A3F0A3F0D2C4D2DF
:06141200C3D2C2D2C122C8
:0300030002126086
:10126000C0E0C083C082C0D075D000C00690023FED
:10127000E0FEA3E0F58BEEF58D9002447401F0D210
:0E1280008ED2ABD006D0D0D082D083D0E03258
:03001B000210EFE1
:1010EF00C0E0C083C082C0D0900244E0640170248D
:1010FF00F0900241E0B40102C2C1900242E0B4019B
:10110F0002C2C2900243E0B40102C2C3758BF775ED
:10111F008DFF800CD2C4D2C3D2C2D2C1C28EC2AB99
:09112F00D0D0D082D083D0E03290
:10141800EF75F04BA42490FEE5F034E290023FF023
:04142800A3CEF0223D
:10142C00EFB40104C2A68002D2A6EDB40103C2A798
:04143C0022D2A722EF
:10134000D3EF9400EE9400401600000075080B7572
:0F13500009BED509FDD508FAEF1F70E41E80E134
:01135F00226B
:040C010041023D006F
:100F0F00900001E06401706AF07B017A00798290B1
:100F1F000106E024FEFD120F82AD07AC069001061C
:100F2F00E0FB2480F582E43400F583E0FE74812B2E
:100F3F00F582E43400F583E0FBEBFFE4900106F06B
:100F4F00EDB5072EECB5062A90023DE0FF9000822A
:100F5F00E0B5071EA3E024FC600F24FE600E24F60C
:100F6F00600D240D700C02086A020C0A0206EA12C8
:020F7F0009D691
:010F8100224D
:10086A009002397403F0900086A3E025E0900238E4
:10087A00F0900084E0FEA3E0FDEDFF90023BEEF075
:10088A00A3EFF0A3E0900002F0A37403F090023803
:10089A00E0900004F090023BE0FFA3E090020ECF4C
:1008AA00F0A3EFF0900238E0C313FF90023CE02F70
:1008BA00FF90023BE03400FE90020EE0FCA3E0FD54
:1008CA00C39FEC9E40030209CCE4900237F09002E9
:1008DA0036F0EC6003020988ED1460250460030217
:1008EA000988E4900236F0A3E0FB90FEF9E0FEA34B
:1008FA00E0FF7C007DB812050AEB4F900237F080CA
:10090A007D90023FE0FEA3E0FFEF2470FFEE341D6E
:10091A00FEE434FFFDE434FFFCE47B4BFAF9F81201
:10092A00001E900236EFF0900242E025E0FF9002AE
:10093A0041E04FFF900243E025E025E04F146019A3
:10094A0014601D14602214602724FD602B24077094
:10095A002D9002377405F08025E4900237F0801E4E
:10096A009002377401F080169002377403F0800EFB
:10097A009002377402F080069002377404F09002F5
:10098A0036E0FF900239E0FE04F074022EF582E4AC
:10099A003400F583EFF0900237E0FF900239E0FE71
:1009AA0004F074022EF582E43400F583EFF090022D
:1009BA000FE004F060030208AE90020EE004F002B9
:0C09CA0008AE900238E02403FF02117B0D
:100C0A009002397403F0900086A3E025E090023840
:100C1A00F0900084E0FEA3E0FDEDFF90023BEEF0D1
:100C2A00A3EFF0A3E0900002F0A37404F09002385E
:100C3A00E0900004F090023BE0FFA3E090020ECFA8
:100C4A00F0A3EFF0900238E0C313FF90023CE02FCC
:100C5A00FF90023BE03400FE90020EE0FCA3E0FDB0
:100C6A00C39FEC9E505EE4900237F0900236F0ED9E
:100C7A007012EC700F7F0C120FE6900237EFF0E45F
:100C8A00900236F0900236E0FF900239E0FE04F05E
:100C9A0074022EF582E43400F583EFF0900237E017
:100CAA00FF900239E0FE04F074022EF582E434006B
:100CBA00F583EFF090020FE004F0708890020EE0E6
:0E0CCA0004F08080900238E02403FF02117BCA
:1006EA00900085E014606D1470030207A81470036B
:1006FA000207EB147003020831240460030208693C
:10070A0078027C007D017B017A0079827E007F0875
:10071A001204CB900007E0FD540F75F0B8A4FF90C7
:10072A00FEF9E5F0F0A3EFF0EDC4540F75F0B8A4AC
:10073A00FFA3E5F0F0A3EFF09001027408F0D2FEF7
:10074A007F057E0012134043AC02900007E090023E
:10075A004502086578027C007D017B017A00798276
:10076A007E007F081204CB900237E0FFC374019F1A
:10077A005401FEEFC45401FFC374019FFDAF06127A
:10078A00142C9001027408F0D2FE7F057E00121329
:10079A004043AC02900007E09002460208657802E6
:1007AA007C007D017B017A0079827E007F08120439
:1007BA00CB900007E0FF30E004D2A88002C2A8EF85
:1007CA00C313FF1214189001027408F0D2FE7F05B9
:1007DA007E0012134043AC02900007E0900247806B
:1007EA007A78027C007D017B017A0079827E007F23
:1007FA00081204CB900007E090010DF0900006E08B
:10080A0090010EF09001027408F0D2FE7F057E007E
:10081A0012134043AC0290010DE0900248F090019F
:10082A000EE0900249803478027C007D017B017AD7
:10083A000079827E007F081204CB900007E09001C5
:10084A000FF09001027408F0D2FE7F057E001213A9
:0F085A004043AC0290010FE090024AF0121047A9
:01086900226C
:1009D60090023A7407F0900088E0900238F0900098
:1009E60084E0FEA3E0FDEDFF90023BEEF0A3EFF006
:1009F60078027C007D017B017A0079827E007F0689
:100A06001204CB90023BE0FFA3E090020ECFF0A3CE
:100A1600EFF0900238E0C313FF90023CE02FFF9006
:100A2600023BE03400FE90020EE0FCA3E0FDC39F13
:100A3600EC9E4003020AFC90023AE02482F582E42E
:100A46003400F583E0900236F090023AE02483F514
:100A560082E43400F583E0900237F0EC6003020A8A
:100A6600E4ED14601E047076900237E075F0B8A4C9
:100A7600FFAEF090FEF9EEF0A3EFF0A3EEF0A3EFD9
:100A8600F0805B900236E0FF121418900237E014F3
:100A9600601914601F14602814603214603724052E
:100AA600703C9002417401F0E4802FE4900241F022
:100AB600A3048013E4900241F0A3F0A304F0801E87
:100AC6009002417401F0A3F0E4A3F080119002417A
:100AD6007401F08005E4900241F0A3F0A3F09002C7
:100AE6003AE02402F090020FE004F0700690020E45
:060AF600E004F0020A1802
:010AFC0022D7
:050F8200900210EDF0EB
:100F870074FFA3F0A3F01204F1FF900211E0F0A3A5
:100F9700E06FF0E4FD900211E0FEA3E0FF30E019FE
:100FA700EEC313FEEF13FFEE64A0FEEF6401FF90A4
:100FB7000211EEF0A3EFF0800B900211E0C313F0E3
:100FC700A3E013F00DEDB408CC740129F9E43AFA63
:0E0FD700900210E014F070AEA3E0FEA3E0FF65
:010FE50022E9
:02117B00AC07BF
:10117D007B017A007902AD04120F82AB07AA06EA51
:10118D00FF74022CF582E43400F583EFF0AF0374A5
:10119D00032CF582E43400F583EFF0EC240290018A
:0E11AD0002F0D2FE7F057E0012134043AC021A
:0111BB002211
:040C050041024B005D
:0300630002128EF8
:08128E00C0E0C083C082C0D0A3
:10129600900110E0701190024BE004F0E0B4640796
:0712A600E4F090011004F0D8
:0912AD00D0D0D082D083D0E03211
:100D800002109DE493A3F8E493A34003F68001F2DC
:100D900008DFF48029E493A3F85407240CC8C33374
:100DA000C4540F4420C8834004F456800146F6DF43
:100DB000E4800B0102040810204080900AFDE47ECC
:100DC000019360BCA3FF543F30E509541FFEE49338
:100DD000A360010ECF54C025E060A840B8E493A3FF
:100DE000FAE493A3F8E493A3C8C582C8CAC583CA2A
:100DF000F0A3C8C582C8CAC583CADFE9DEE780BEE2
:010C090000EA
:1003FB00E709F608DFFA8046E709F208DFFA803EE4
:10040B0088828C83E709F0A3DFFA8032E309F608D0
:10041B00DFFA8078E309F208DFFA807088828C8338
:10042B00E309F0A3DFFA806489828A83E0A3F608EC
:10043B00DFFA805889828A83E0A3F208DFFA804CC6
:10044B0080D280FA80C680D4806980F2803380109D
:10045B0080A680EA809A80A880DA80E280CA803306
:10046B0089828A83ECFAE493A3C8C582C8CCC5837E
:10047B00CCF0A3C8C582C8CCC583CCDFE9DEE7804E
:10048B000D89828A83E493A3F608DFF9ECFAA9F0CD
:10049B00EDFB2289828A83ECFAE0A3C8C582C8CC23
:1004AB00C583CCF0A3C8C582C8CCC583CCDFEADE3C
:1004BB00E880DB89828A83E493A3F208DFF980CC9E
:1004CB0088F0EF60010E4E60C388F0ED2402B40497
:1004DB000050B9F582EB2402B4040050AF2323453E
:0604EB00822390044B7314
:1004F100BB010689828A83E0225002E722BBFE0209
:09050100E32289828A83E493223B
:10050A00BC000BBE0029EF8DF084FFADF022E4CCD5
:10051A00F875F008EF2FFFEE33FEEC33FCEE9DEC9E
:10052A00984005FCEE9DFE0FD5F0E9E4CEFD22EDE4
:10053A00F8F5F0EE8420D21CFEADF075F008EF2F2E
:10054A00FFED33FD4007985006D5F0F222C398FD1F
:05055A000FD5F0EA22BC
:10055F00BB0110E58229F582E5833AF583E0F5F0DA
:10056F00A3E0225009E92582F886F008E622BBFEB7
:10057F000AE92582F8E2F5F008E222E5832AF583FD
:08058F00E993F5F0A3E99322C2
:10001E00C2D5E830E70FB2D5E4C39BFBE49AFAE40D
:10002E0099F9E498F8EC30E717B2D512005412069D
:10003E0012E4C39BFBE49AFAE499F9E498F880037E
:10004E0012061230D50DE4C39FFFE49EFEE49DFD23
:04005E00E49CFC2200
:10009600E5082411F582E43402F583E00508229090
:1000A600020E300703900211E475F0011206A40255
:1000B60004F12000E97F2ED2008018EF540F24901F
:1000C600D43440D4FF30040BEF24BFB41A005003DD
:1000D6002461FFE50960021509050CE50C700205AF
:1000E6000B30070E90020EE475F0011206A4EF0223
:1000F60005C40214637403D2078003E4C207F5083B
:1001060090020E1206BBE4F509F50BF50CE5096045
:10011600077F201200D980F5750AFFC201C200C20E
:1001260002C203C205C206C2081200A5FF700D3046
:1001360007057F001200EAAF0CAE0B22B4255FC2A2
:10014600D5C2041200A5FF24D0B40A00501A75F0D7
:100156000A780930D50508B6FF0106C6A426F6209A
:10016600D5047002D20380D924CFB41A00EF50040C
:10017600C2E5D2040202EBD20180C6D20080C0D210
:100186000280BCD2D580BAD20580B47F201200D9B5
:100196002002077401B5090040F1120096FF120013
:1001A600D9020113D208D2068095120096FB1200DE
:1001B60096FA120096F94A4B700679BC7A037BFFD1
:1001C60020022EE509602A7E008E827583001205C4
:1001D6009760060EEE650A70F0C2D5EBC0E0EAC085
:1001E600E0E9C0E0EE120332D0E0F9D0E0FAD0E068
:1001F600FB1204F1FF60AAEBC0E0EAC0E0E9C0E050
:100206001200D9D0E02401F9D0E03400FAD0E0FBA6
:10021600E50A0460DCD50AD980877BFF7A03792E4C
:10022600D202809C791080027908C206C208800832
:10023600D2D5790A8004790AC2D5E50A047002F596
:100246000AE4FAFDFEFF120096FC7B082001131259
:100256000096FD7B1030000A120096FE120096FFF3
:100266007B20EC3382D592D55013C3E43000069F31
:10027600FFE49EFEE42001039DFDE49CFCE4CBF834
:10028600C201EC700CCFCECDCCE824F8F870F38028
:1002960017C3EF33FFEE33FEED33FDEC33FCEB33E8
:1002A600FB994002FB0FD8E9EB300105F8D0E0C41A
:1002B60048B201C0E00AEC4D4E4F78207B0070C278
:1002C600EAB50A0040BCC0E0120334D0F0D0E0200A
:1002D6000104C4C0E0C4B201C0F01200C2D0F0D51F
:1002E600F0EB0201131206C401B053022A58018131
:1002F6004C017D42022E4F02364402364901964396
:08030600023C550220460220D2
:10030E004502204703DC5001852D01892E01AC2BBF
:10031E00018D2301AA2003C52A014548000001A42E
:10032E003F3F3F00790AA2D5200314300509B910CA
:10033E00020404B9080104A2D520060250010420CB
:10034E0002689202B509005034C0E07F20300319D4
:10035E007F30A20272067205500F12038BC202C2C8
:10036E0006C205C2087F30800F300503E9C0E012D7
:10037E0000D9300503D0E0F9D0E0B509CC3005172F
:10038E007F30B9100C1200D97F583004077F788067
:10039E0003B908031200D93002057F2D0200D97F60
:1003AE00202008F87F2B2006F322920280CF286EA1
:1003BE00756C6C2900D2011200963001F8C20178DA
:1003CE000930D50108F60201452D50434958120057
:1003DE00962403B405004001E49003D7931200CA9B
:0D03EE00743A1200CAD20375090402022AF3
:10059700BB010CE58229F582E5833AF583E0225019
:1005A70006E92582F8E622BBFE06E92582F8E22263
:0D05B700E58229F582E5833AF583E493227D
:1005C400BB010689828A83F0225002F722BBFE0116
:0205D400F32210
:1005D60075F008758200EF2FFFEE33FECD33CDCCDC
:1005E60033CCC58233C5829BED9AEC99E58298405F
:1005F6000CF582EE9BFEED9AFDEC99FC0FD5F0D63C
:10060600E4CEFBE4CDFAE4CCF9A88222B800C1B965
:100616000059BA002DEC8BF084CFCECDFCE5F0CBA3
:10062600F97818EF2FFFEE33FEED33FDEC33FCEBDC
:1006360033FB10D703994004EB99FB0FD8E5E4F997
:10064600FA227818EF2FFFEE33FEED33FDEC33FC84
:10065600C933C910D7059BE99A4007EC9BFCE99A78
:10066600F90FD8E0E4C9FAE4CCFB2275F010EF2FBD
:10067600FFEE33FEED33FDCC33CCC833C810D707BD
:100686009BEC9AE899400AED9BFDEC9AFCE899F8F8
:0E0696000FD5F0DAE4CDFBE4CCFAE4C8F9228B
:1006A400F8E0FBA3A3E0F925F0F0E58215827002DF
:0706B4001583E0FA38F02283
:0906BB00EBF0A3EAF0A3E9F02240
:1006C400D083D082F8E4937012740193700DA3A3C5
:1006D40093F8740193F5828883E4737402936860D9
:0606E400EFA3A3A380DFD9
:00000001FF
